{
  "contractName": "ContractFactory",
  "abi": [
    {
      "anonymous": false,
      "inputs": [
        {
          "indexed": true,
          "internalType": "address",
          "name": "creatorAddress",
          "type": "address"
        },
        {
          "indexed": true,
          "internalType": "address",
          "name": "contractAddress",
          "type": "address"
        }
      ],
      "name": "ContractDeployed",
      "type": "event"
    },
    {
      "inputs": [
        {
          "internalType": "string",
          "name": "_ipfsHash",
          "type": "string"
        }
      ],
      "name": "createContract",
      "outputs": [],
      "stateMutability": "nonpayable",
      "type": "function"
    },
    {
      "inputs": [],
      "name": "getDeployedContracts",
      "outputs": [
        {
          "internalType": "address[]",
          "name": "",
          "type": "address[]"
        }
      ],
      "stateMutability": "view",
      "type": "function",
      "constant": true
    },
    {
      "inputs": [],
      "name": "getOwnerDeployedContracts",
      "outputs": [
        {
          "internalType": "address[]",
          "name": "",
          "type": "address[]"
        }
      ],
      "stateMutability": "view",
      "type": "function",
      "constant": true
    }
  ],
  "bytecode": "0x608060405234801561001057600080fd5b50610e17806100206000396000f3fe60806040523480156200001157600080fd5b5060043610620000465760003560e01c806318f80bb9146200004b5780633ef99ea0146200006b578063aa9a068f146200008d575b600080fd5b6200006960048036038101906200006391906200042c565b620000af565b005b620000756200024f565b60405162000084919062000558565b60405180910390f35b620000976200031c565b604051620000a6919062000558565b60405180910390f35b60008133604051620000c190620003ac565b620000ce9291906200057c565b604051809103906000f080158015620000eb573d6000803e3d6000fd5b5090506000819080600181540180825580915050600190039060005260206000200160009091909190916101000a81548173ffffffffffffffffffffffffffffffffffffffff021916908373ffffffffffffffffffffffffffffffffffffffff160217905550600160003373ffffffffffffffffffffffffffffffffffffffff1673ffffffffffffffffffffffffffffffffffffffff168152602001908152602001600020819080600181540180825580915050600190039060005260206000200160009091909190916101000a81548173ffffffffffffffffffffffffffffffffffffffff021916908373ffffffffffffffffffffffffffffffffffffffff1602179055508073ffffffffffffffffffffffffffffffffffffffff163373ffffffffffffffffffffffffffffffffffffffff167f33c981baba081f8fd2c52ac6ad1ea95b6814b4376640f55689051f658472968860405160405180910390a35050565b6060600160003373ffffffffffffffffffffffffffffffffffffffff1673ffffffffffffffffffffffffffffffffffffffff1681526020019081526020016000208054806020026020016040519081016040528092919081815260200182805480156200031257602002820191906000526020600020905b8160009054906101000a900473ffffffffffffffffffffffffffffffffffffffff1673ffffffffffffffffffffffffffffffffffffffff1681526020019060010190808311620002c7575b5050505050905090565b60606000805480602002602001604051908101604052809291908181526020018280548015620003a257602002820191906000526020600020905b8160009054906101000a900473ffffffffffffffffffffffffffffffffffffffff1673ffffffffffffffffffffffffffffffffffffffff168152602001906001019080831162000357575b5050505050905090565b6106bc806200072683390190565b6000620003d1620003cb84620005e4565b620005b0565b905082815260208101848484011115620003ea57600080fd5b620003f7848285620006a0565b509392505050565b600082601f8301126200041157600080fd5b813562000423848260208601620003ba565b91505092915050565b6000602082840312156200043f57600080fd5b600082013567ffffffffffffffff8111156200045a57600080fd5b6200046884828501620003ff565b91505092915050565b60006200047f83836200048b565b60208301905092915050565b62000496816200066c565b82525050565b620004a7816200066c565b82525050565b6000620004ba8262000627565b620004c681856200064a565b9350620004d38362000617565b8060005b838110156200050a578151620004ee888262000471565b9750620004fb836200063d565b925050600181019050620004d7565b5085935050505092915050565b6000620005248262000632565b6200053081856200065b565b935062000542818560208601620006af565b6200054d8162000714565b840191505092915050565b60006020820190508181036000830152620005748184620004ad565b905092915050565b6000604082019050818103600083015262000598818562000517565b9050620005a960208301846200049c565b9392505050565b6000604051905081810181811067ffffffffffffffff82111715620005da57620005d9620006e5565b5b8060405250919050565b600067ffffffffffffffff821115620006025762000601620006e5565b5b601f19601f8301169050602081019050919050565b6000819050602082019050919050565b600081519050919050565b600081519050919050565b6000602082019050919050565b600082825260208201905092915050565b600082825260208201905092915050565b6000620006798262000680565b9050919050565b600073ffffffffffffffffffffffffffffffffffffffff82169050919050565b82818337600083830152505050565b60005b83811015620006cf578082015181840152602081019050620006b2565b83811115620006df576000848401525b50505050565b7f4e487b7100000000000000000000000000000000000000000000000000000000600052604160045260246000fd5b6000601f19601f830116905091905056fe608060405234801561001057600080fd5b506040516106bc3803806106bc833981810160405281019061003291906101b1565b80600160006101000a81548173ffffffffffffffffffffffffffffffffffffffff021916908373ffffffffffffffffffffffffffffffffffffffff1602179055508160009080519060200190610089929190610091565b505050610372565b82805461009d906102cb565b90600052602060002090601f0160209004810192826100bf5760008555610106565b82601f106100d857805160ff1916838001178555610106565b82800160010185558215610106579182015b828111156101055782518255916020019190600101906100ea565b5b5090506101139190610117565b5090565b5b80821115610130576000816000905550600101610118565b5090565b600061014761014284610236565b610205565b90508281526020810184848401111561015f57600080fd5b61016a848285610298565b509392505050565b6000815190506101818161035b565b92915050565b600082601f83011261019857600080fd5b81516101a8848260208601610134565b91505092915050565b600080604083850312156101c457600080fd5b600083015167ffffffffffffffff8111156101de57600080fd5b6101ea85828601610187565b92505060206101fb85828601610172565b9150509250929050565b6000604051905081810181811067ffffffffffffffff8211171561022c5761022b61032c565b5b8060405250919050565b600067ffffffffffffffff8211156102515761025061032c565b5b601f19601f8301169050602081019050919050565b600061027182610278565b9050919050565b600073ffffffffffffffffffffffffffffffffffffffff82169050919050565b60005b838110156102b657808201518184015260208101905061029b565b838111156102c5576000848401525b50505050565b600060028204905060018216806102e357607f821691505b602082108114156102f7576102f66102fd565b5b50919050565b7f4e487b7100000000000000000000000000000000000000000000000000000000600052602260045260246000fd5b7f4e487b7100000000000000000000000000000000000000000000000000000000600052604160045260246000fd5b61036481610266565b811461036f57600080fd5b50565b61033b806103816000396000f3fe608060405234801561001057600080fd5b50600436106100365760003560e01c80636d4ce63c1461003b578063d500958414610059575b600080fd5b610043610077565b60405161005091906101f0565b60405180910390f35b610061610163565b60405161006e91906101d5565b60405180910390f35b6060600160009054906101000a900473ffffffffffffffffffffffffffffffffffffffff1673ffffffffffffffffffffffffffffffffffffffff163373ffffffffffffffffffffffffffffffffffffffff16146100d357600080fd5b600080546100e090610293565b80601f016020809104026020016040519081016040528092919081815260200182805461010c90610293565b80156101595780601f1061012e57610100808354040283529160200191610159565b820191906000526020600020905b81548152906001019060200180831161013c57829003601f168201915b5050505050905090565b6000600160009054906101000a900473ffffffffffffffffffffffffffffffffffffffff16905090565b6101968161022e565b82525050565b60006101a782610212565b6101b1818561021d565b93506101c1818560208601610260565b6101ca816102f4565b840191505092915050565b60006020820190506101ea600083018461018d565b92915050565b6000602082019050818103600083015261020a818461019c565b905092915050565b600081519050919050565b600082825260208201905092915050565b600061023982610240565b9050919050565b600073ffffffffffffffffffffffffffffffffffffffff82169050919050565b60005b8381101561027e578082015181840152602081019050610263565b8381111561028d576000848401525b50505050565b600060028204905060018216806102ab57607f821691505b602082108114156102bf576102be6102c5565b5b50919050565b7f4e487b7100000000000000000000000000000000000000000000000000000000600052602260045260246000fd5b6000601f19601f830116905091905056fea2646970667358221220d5e8d952de4efe4b3de91e3f517897f377093d0bba72c2e51e62b45ce9789dc264736f6c63430008000033a2646970667358221220e0a60c30a74edb0de5ab5d43051885a3bb17b3792e5bbcbc678149d186a4b06b64736f6c63430008000033",
  "immutableReferences": {},
  "source": "//SPDX-License-Identifier: UNLICENSED\r\npragma solidity ^0.8.0;\r\n\r\nimport \"./Contract.sol\";\r\n\r\ncontract ContractFactory {\r\n\r\n  event ContractDeployed(\r\n    address indexed creatorAddress,\r\n    address indexed contractAddress\r\n  );\r\n\r\n    address[] private deployedContracts;\r\n\r\n    mapping (address => address[]) deployedOwnerContracts;\r\n\r\n    function createContract(string memory _ipfsHash) public {\r\n        Contract newContract = new Contract(_ipfsHash, msg.sender);\r\n        deployedContracts.push(address(newContract));\r\n        deployedOwnerContracts[msg.sender].push(address(newContract));\r\n        emit ContractDeployed(msg.sender, address(newContract));\r\n\r\n    }\r\n\r\n    //Do we need this? or every user should only see their own contracts?\r\n    function getDeployedContracts() public view returns (address[] memory) {\r\n        return deployedContracts;\r\n    }\r\n\r\n    function getOwnerDeployedContracts() public view returns (address[] memory) {\r\n        return deployedOwnerContracts[msg.sender];\r\n    }\r\n}\r\n",
  "sourcePath": "D:/Solidity/interviews/dapp/contracts/ContractFactory.sol",
  "compiler": {
    "name": "solc",
    "version": "0.8.0+commit.c7dfd78e.Emscripten.clang"
  },
  "schemaVersion": "3.4.1",
  "updatedAt": "2021-10-02T09:11:40.327Z",
  "networkType": "ethereum",
  "devdoc": {
    "kind": "dev",
    "methods": {},
    "version": 1
  },
  "userdoc": {
    "kind": "user",
    "methods": {},
    "version": 1
  }
}