{
  "contractName": "Contract",
  "abi": [
    {
      "inputs": [
        {
          "internalType": "string",
          "name": "_ipfsHash",
          "type": "string"
        },
        {
          "internalType": "address",
          "name": "_creator",
          "type": "address"
        }
      ],
      "stateMutability": "nonpayable",
      "type": "constructor"
    },
    {
      "inputs": [],
      "name": "getManager",
      "outputs": [
        {
          "internalType": "address",
          "name": "",
          "type": "address"
        }
      ],
      "stateMutability": "view",
      "type": "function"
    },
    {
      "inputs": [],
      "name": "get",
      "outputs": [
        {
          "internalType": "string",
          "name": "",
          "type": "string"
        }
      ],
      "stateMutability": "view",
      "type": "function"
    }
  ],
  "bytecode": "0x608060405234801561001057600080fd5b506040516106bc3803806106bc833981810160405281019061003291906101b1565b80600160006101000a81548173ffffffffffffffffffffffffffffffffffffffff021916908373ffffffffffffffffffffffffffffffffffffffff1602179055508160009080519060200190610089929190610091565b505050610372565b82805461009d906102cb565b90600052602060002090601f0160209004810192826100bf5760008555610106565b82601f106100d857805160ff1916838001178555610106565b82800160010185558215610106579182015b828111156101055782518255916020019190600101906100ea565b5b5090506101139190610117565b5090565b5b80821115610130576000816000905550600101610118565b5090565b600061014761014284610236565b610205565b90508281526020810184848401111561015f57600080fd5b61016a848285610298565b509392505050565b6000815190506101818161035b565b92915050565b600082601f83011261019857600080fd5b81516101a8848260208601610134565b91505092915050565b600080604083850312156101c457600080fd5b600083015167ffffffffffffffff8111156101de57600080fd5b6101ea85828601610187565b92505060206101fb85828601610172565b9150509250929050565b6000604051905081810181811067ffffffffffffffff8211171561022c5761022b61032c565b5b8060405250919050565b600067ffffffffffffffff8211156102515761025061032c565b5b601f19601f8301169050602081019050919050565b600061027182610278565b9050919050565b600073ffffffffffffffffffffffffffffffffffffffff82169050919050565b60005b838110156102b657808201518184015260208101905061029b565b838111156102c5576000848401525b50505050565b600060028204905060018216806102e357607f821691505b602082108114156102f7576102f66102fd565b5b50919050565b7f4e487b7100000000000000000000000000000000000000000000000000000000600052602260045260246000fd5b7f4e487b7100000000000000000000000000000000000000000000000000000000600052604160045260246000fd5b61036481610266565b811461036f57600080fd5b50565b61033b806103816000396000f3fe608060405234801561001057600080fd5b50600436106100365760003560e01c80636d4ce63c1461003b578063d500958414610059575b600080fd5b610043610077565b60405161005091906101f0565b60405180910390f35b610061610163565b60405161006e91906101d5565b60405180910390f35b6060600160009054906101000a900473ffffffffffffffffffffffffffffffffffffffff1673ffffffffffffffffffffffffffffffffffffffff163373ffffffffffffffffffffffffffffffffffffffff16146100d357600080fd5b600080546100e090610293565b80601f016020809104026020016040519081016040528092919081815260200182805461010c90610293565b80156101595780601f1061012e57610100808354040283529160200191610159565b820191906000526020600020905b81548152906001019060200180831161013c57829003601f168201915b5050505050905090565b6000600160009054906101000a900473ffffffffffffffffffffffffffffffffffffffff16905090565b6101968161022e565b82525050565b60006101a782610212565b6101b1818561021d565b93506101c1818560208601610260565b6101ca816102f4565b840191505092915050565b60006020820190506101ea600083018461018d565b92915050565b6000602082019050818103600083015261020a818461019c565b905092915050565b600081519050919050565b600082825260208201905092915050565b600061023982610240565b9050919050565b600073ffffffffffffffffffffffffffffffffffffffff82169050919050565b60005b8381101561027e578082015181840152602081019050610263565b8381111561028d576000848401525b50505050565b600060028204905060018216806102ab57607f821691505b602082108114156102bf576102be6102c5565b5b50919050565b7f4e487b7100000000000000000000000000000000000000000000000000000000600052602260045260246000fd5b6000601f19601f830116905091905056fea2646970667358221220d5e8d952de4efe4b3de91e3f517897f377093d0bba72c2e51e62b45ce9789dc264736f6c63430008000033",
  "immutableReferences": {},
  "source": "//SPDX-License-Identifier: UNLICENSED\r\npragma solidity ^0.8.0;\r\n\r\ncontract Contract {\r\n\r\n    string ipfsHash;\r\n\r\n    address private manager;\r\n\r\n    modifier onlyManager() {\r\n        require(msg.sender == manager);\r\n        _;\r\n    }\r\n\r\n    constructor(string memory _ipfsHash, address _creator) {\r\n        manager = _creator;\r\n        ipfsHash = _ipfsHash;\r\n    }\r\n\r\n    function getManager() public view returns (address)  {\r\n      return manager;\r\n    }\r\n\r\n    function get() public view onlyManager returns (string memory)  {\r\n      return ipfsHash;\r\n    }\r\n}\r\n",
  "sourcePath": "D:/Solidity/interviews/dapp/contracts/Contract.sol",
  "compiler": {
    "name": "solc",
    "version": "0.8.0+commit.c7dfd78e.Emscripten.clang"
  },
  "schemaVersion": "3.4.1",
  "updatedAt": "2021-10-02T07:55:41.717Z",
  "devdoc": {
    "kind": "dev",
    "methods": {},
    "version": 1
  },
  "userdoc": {
    "kind": "user",
    "methods": {},
    "version": 1
  }
}